S00B00004C45442E7372656344
S11300000C942A000C9447000C9447000C9447006D
S11300100C9447000C9447000C9447000C94470040
S11300200C9447000C9447000C9447000C94470030
S11300300C9447000C9447000C9447000C94470020
S11300400C9447000C9447000C9447000C94470010
S11300500C94470011241FBECFE5D8E0DEBFCDBF0E
S113006010E0A0E6B0E0E6E5F4E002C005900D92F1
S1130070A036B107D9F710E0A0E6B0E001C01D92A8
S1130080A036B107E1F70E948A010C9429020C946E
S11300900000843409F471C0853448F4823499F141
S11300A0833408F04DC0813409F083C00FC0823618
S11300B051F1833620F4813609F07BC007C08336C2
S11300C009F43EC0843609F074C057C0413069F465
S11300D02AB381E090E0AC0102C0440F551F6A9539
S11300E0E2F7BA01622B6ABB08952AB381E090E07B
S11300F0AC0102C0440F551F6A95E2F7BA0160953E
S113010062236ABB0895413069F427B381E090E02B
S1130110AC0102C0440F551F6A95E2F7BA01622B85
S113012067BB089527B381E090E0AC0102C0440F9F
S1130130551F6A95E2F7BA016095622367BB08957B
S1130140413069F424B381E090E0AC0102C0440F73
S1130150551F6A95E2F7BA01622B64BB089524B374
S113016081E090E0AC0102C0440F551F6A95E2F7AC
S1130170BA016095622364BB0895413069F421B3E8
S113018081E090E0AC0102C0440F551F6A95E2F78C
S1130190BA01622B61BB089521B381E090E0AC0108
S11301A002C0440F551F6A95E2F7BA0160956223B5
S11301B061BB0895843409F471C0853448F48234F1
S11301C099F1833408F04DC0813409F083C00FC025
S11301D0823651F1833620F4813609F07BC007C0A2
S11301E0833609F43EC0843609F074C057C04130E8
S11301F069F42BB381E090E0AC0102C0440F551FB9
S11302006A95E2F7BA01622B6BBB08952BB381E0C8
S113021090E0AC0102C0440F551F6A95E2F7BA01A1
S1130220609562236BBB0895413069F428B381E083
S113023090E0AC0102C0440F551F6A95E2F7BA0181
S1130240622B68BB089528B381E090E0AC0102C042
S1130250440F551F6A95E2F7BA016095622368BBA3
S11302600895413069F425B381E090E0AC0102C007
S1130270440F551F6A95E2F7BA01622B65BB0895D6
S113028025B381E090E0AC0102C0440F551F6A958C
S1130290E2F7BA016095622365BB0895413069F4C1
S11302A022B381E090E0AC0102C0440F551F6A956F
S11302B0E2F7BA01622B62BB089522B381E090E0B9
S11302C0AC0102C0440F551F6A95E2F7BA0160956C
S11302D0622362BB08958434D9F0853438F48234BF
S11302E099F0833498F48134A1F40CC0823661F01F
S11302F0833618F4813669F405C0833639F08436C0
S113030041F406C06BBB089568BB089565BB0895AE
S113031062BB089581E460E041E00E94490081E409
S113032061E041E00E94490081E462E041E00E9412
S11303304900C0E0D0E002E010E0EE24EA94FE2C94
S1130340CE01B8010E9402028130910531F481E6A8
S113035060E041E00E94DA0005C081E660E040E030
S11303600E94DA00C230D10549F0C530D10531F020
S1130370C830D10519F0CB30D10531F481E661E004
S113038041E00E94DA0005C081E661E040E00E949D
S1130390DA00C330D10539F0C730D10521F0CB30B4
S11303A0D10581F41FC081E662E041E00E94DA00D9
S11303B08FEF99E6A8E181509040A040E1F700C09A
S11303C000000EC081E662E040E00E94DA008FEF98
S11303D099E6A8E181509040A040E1F700C00000F8
S11303E02196AECF81E662E041E00E94DA008FEF11
S11303F099E6A8E181509040A040E1F700C00000D8
S1130400E701EECF97FB092E07260AD077FD04D02B
S11304100CD006D000201AF4709561957F4F089592
S1130420F6F7909581959F4F0895AA1BBB1B51E148
S113043007C0AA1FBB1FA617B70710F0A61BB70B50
S1130440881F991F5A95A9F780959095BC01CD01F5
S10904500895F894FFCFAB
S9030000FC
